{
  "_format": "hh-sol-artifact-1",
  "contractName": "SongContract",
  "sourceName": "contracts/SongLinkContract.sol",
  "abi": [
    {
      "inputs": [],
      "stateMutability": "payable",
      "type": "constructor"
    },
    {
      "anonymous": false,
      "inputs": [
        {
          "indexed": true,
          "internalType": "address",
          "name": "from",
          "type": "address"
        },
        {
          "indexed": false,
          "internalType": "uint256",
          "name": "timestamp",
          "type": "uint256"
        },
        {
          "indexed": false,
          "internalType": "string",
          "name": "playlist_url",
          "type": "string"
        }
      ],
      "name": "NewPlaylist",
      "type": "event"
    },
    {
      "inputs": [],
      "name": "getAllWaves",
      "outputs": [
        {
          "components": [
            {
              "internalType": "address",
              "name": "sender",
              "type": "address"
            },
            {
              "internalType": "string",
              "name": "playlist_url",
              "type": "string"
            },
            {
              "internalType": "uint256",
              "name": "timestamp",
              "type": "uint256"
            }
          ],
          "internalType": "struct SongContract.Playlist[]",
          "name": "",
          "type": "tuple[]"
        }
      ],
      "stateMutability": "view",
      "type": "function"
    },
    {
      "inputs": [],
      "name": "getTotalPlaylist",
      "outputs": [
        {
          "internalType": "uint256",
          "name": "",
          "type": "uint256"
        }
      ],
      "stateMutability": "view",
      "type": "function"
    },
    {
      "inputs": [
        {
          "internalType": "address",
          "name": "",
          "type": "address"
        }
      ],
      "name": "lastPlaylist",
      "outputs": [
        {
          "internalType": "uint256",
          "name": "",
          "type": "uint256"
        }
      ],
      "stateMutability": "view",
      "type": "function"
    },
    {
      "inputs": [
        {
          "internalType": "string",
          "name": "_playlist_url",
          "type": "string"
        }
      ],
      "name": "upload",
      "outputs": [],
      "stateMutability": "nonpayable",
      "type": "function"
    }
  ],
  "bytecode": "0x60806040526200004f6040518060400160405280601981526020017f57652068617665206265656e20636f6e737472756374656421000000000000008152506200005560201b620005d31760201c565b620001e9565b620000f5816040516024016200006c919062000162565b6040516020818303038152906040527f41304fac000000000000000000000000000000000000000000000000000000007bffffffffffffffffffffffffffffffffffffffffffffffffffffffff19166020820180517bffffffffffffffffffffffffffffffffffffffffffffffffffffffff8381831617835250505050620000f860201b60201c565b50565b60008151905060006a636f6e736f6c652e6c6f679050602083016000808483855afa5050505050565b60006200012e8262000186565b6200013a818562000191565b93506200014c818560208601620001a2565b6200015781620001d8565b840191505092915050565b600060208201905081810360008301526200017e818462000121565b905092915050565b600081519050919050565b600082825260208201905092915050565b60005b83811015620001c2578082015181840152602081019050620001a5565b83811115620001d2576000848401525b50505050565b6000601f19601f8301169050919050565b61104380620001f96000396000f3fe608060405234801561001057600080fd5b506004361061004c5760003560e01c80631194369f1461005157806342ce14881461006f578063bd43a9081461008b578063e3dc919b146100a9575b600080fd5b6100596100d9565b6040516100669190610d35565b60405180910390f35b61008960048036038101906100849190610919565b610124565b005b61009361046a565b6040516100a09190610c1c565b60405180910390f35b6100c360048036038101906100be91906108f0565b6105bb565b6040516100d09190610d35565b60405180910390f35b600061011c6040518060400160405280601581526020017f5765206861766520256420506c61796c6973747321000000000000000000000081525060005461066c565b600054905090565b42610384600260003373ffffffffffffffffffffffffffffffffffffffff1673ffffffffffffffffffffffffffffffffffffffff168152602001908152602001600020546101729190610e52565b106101b2576040517f08c379a00000000000000000000000000000000000000000000000000000000081526004016101a990610d15565b60405180910390fd5b42600260003373ffffffffffffffffffffffffffffffffffffffff1673ffffffffffffffffffffffffffffffffffffffff1681526020019081526020016000208190555060016000808282546102089190610e52565b9250508190555061024f6040518060400160405280601781526020017f25732073656e642074686520706c61796c6973742025730000000000000000008152503383610708565b600160405180606001604052803373ffffffffffffffffffffffffffffffffffffffff16815260200183815260200142815250908060018154018082558091505060019003906000526020600020906003020160009091909190915060008201518160000160006101000a81548173ffffffffffffffffffffffffffffffffffffffff021916908373ffffffffffffffffffffffffffffffffffffffff160217905550602082015181600101908051906020019061030e9291906107d0565b506040820151816002015550503373ffffffffffffffffffffffffffffffffffffffff167f82c37aa1b90e464374e18a6dc5490dddbb118dcef6a4484fbc1098e3513b7f234283604051610363929190610d50565b60405180910390a26000655af3107a40009050478111156103b9576040517f08c379a00000000000000000000000000000000000000000000000000000000081526004016103b090610cd5565b60405180910390fd5b60003373ffffffffffffffffffffffffffffffffffffffff16826040516103df90610c07565b60006040518083038185875af1925050503d806000811461041c576040519150601f19603f3d011682016040523d82523d6000602084013e610421565b606091505b5050905080610465576040517f08c379a000000000000000000000000000000000000000000000000000000000815260040161045c90610cf5565b60405180910390fd5b505050565b60606001805480602002602001604051908101604052809291908181526020016000905b828210156105b257838290600052602060002090600302016040518060600160405290816000820160009054906101000a900473ffffffffffffffffffffffffffffffffffffffff1673ffffffffffffffffffffffffffffffffffffffff1673ffffffffffffffffffffffffffffffffffffffff16815260200160018201805461051790610f26565b80601f016020809104026020016040519081016040528092919081815260200182805461054390610f26565b80156105905780601f1061056557610100808354040283529160200191610590565b820191906000526020600020905b81548152906001019060200180831161057357829003601f168201915b505050505081526020016002820154815250508152602001906001019061048e565b50505050905090565b60026020528060005260406000206000915090505481565b610669816040516024016105e79190610c3e565b6040516020818303038152906040527f41304fac000000000000000000000000000000000000000000000000000000007bffffffffffffffffffffffffffffffffffffffffffffffffffffffff19166020820180517bffffffffffffffffffffffffffffffffffffffffffffffffffffffff83818316178352505050506107a7565b50565b6107048282604051602401610682929190610ca5565b6040516020818303038152906040527f9710a9d0000000000000000000000000000000000000000000000000000000007bffffffffffffffffffffffffffffffffffffffffffffffffffffffff19166020820180517bffffffffffffffffffffffffffffffffffffffffffffffffffffffff83818316178352505050506107a7565b5050565b6107a283838360405160240161072093929190610c60565b6040516020818303038152906040527fe0e9ad4f000000000000000000000000000000000000000000000000000000007bffffffffffffffffffffffffffffffffffffffffffffffffffffffff19166020820180517bffffffffffffffffffffffffffffffffffffffffffffffffffffffff83818316178352505050506107a7565b505050565b60008151905060006a636f6e736f6c652e6c6f679050602083016000808483855afa5050505050565b8280546107dc90610f26565b90600052602060002090601f0160209004810192826107fe5760008555610845565b82601f1061081757805160ff1916838001178555610845565b82800160010185558215610845579182015b82811115610844578251825591602001919060010190610829565b5b5090506108529190610856565b5090565b5b8082111561086f576000816000905550600101610857565b5090565b600061088661088184610db1565b610d80565b90508281526020810184848401111561089e57600080fd5b6108a9848285610ee4565b509392505050565b6000813590506108c081610ff6565b92915050565b600082601f8301126108d757600080fd5b81356108e7848260208601610873565b91505092915050565b60006020828403121561090257600080fd5b6000610910848285016108b1565b91505092915050565b60006020828403121561092b57600080fd5b600082013567ffffffffffffffff81111561094557600080fd5b610951848285016108c6565b91505092915050565b60006109668383610b99565b905092915050565b61097781610ea8565b82525050565b61098681610ea8565b82525050565b600061099782610df1565b6109a18185610e14565b9350836020820285016109b385610de1565b8060005b858110156109ef57848403895281516109d0858261095a565b94506109db83610e07565b925060208a019950506001810190506109b7565b50829750879550505050505092915050565b6000610a0c82610dfc565b610a168185610e30565b9350610a26818560208601610ef3565b610a2f81610fe5565b840191505092915050565b6000610a4582610dfc565b610a4f8185610e41565b9350610a5f818560208601610ef3565b610a6881610fe5565b840191505092915050565b6000610a80603483610e41565b91507f547279696e6720746f207769746864726177206d6f7265206d6f6e657920746860008301527f616e2074686520636f6e7472616374206861732e0000000000000000000000006020830152604082019050919050565b6000610ae6602783610e41565b91507f4661696c656420746f207769746864726177206d6f6e65792066726f6d20636f60008301527f6e74726163742e000000000000000000000000000000000000000000000000006020830152604082019050919050565b6000610b4c600083610e25565b9150600082019050919050565b6000610b66600883610e41565b91507f576169742031356d0000000000000000000000000000000000000000000000006000830152602082019050919050565b6000606083016000830151610bb1600086018261096e565b5060208301518482036020860152610bc98282610a01565b9150506040830151610bde6040860182610be9565b508091505092915050565b610bf281610eda565b82525050565b610c0181610eda565b82525050565b6000610c1282610b3f565b9150819050919050565b60006020820190508181036000830152610c36818461098c565b905092915050565b60006020820190508181036000830152610c588184610a3a565b905092915050565b60006060820190508181036000830152610c7a8186610a3a565b9050610c89602083018561097d565b8181036040830152610c9b8184610a3a565b9050949350505050565b60006040820190508181036000830152610cbf8185610a3a565b9050610cce6020830184610bf8565b9392505050565b60006020820190508181036000830152610cee81610a73565b9050919050565b60006020820190508181036000830152610d0e81610ad9565b9050919050565b60006020820190508181036000830152610d2e81610b59565b9050919050565b6000602082019050610d4a6000830184610bf8565b92915050565b6000604082019050610d656000830185610bf8565b8181036020830152610d778184610a3a565b90509392505050565b6000604051905081810181811067ffffffffffffffff82111715610da757610da6610fb6565b5b8060405250919050565b600067ffffffffffffffff821115610dcc57610dcb610fb6565b5b601f19601f8301169050602081019050919050565b6000819050602082019050919050565b600081519050919050565b600081519050919050565b6000602082019050919050565b600082825260208201905092915050565b600081905092915050565b600082825260208201905092915050565b600082825260208201905092915050565b6000610e5d82610eda565b9150610e6883610eda565b9250827fffffffffffffffffffffffffffffffffffffffffffffffffffffffffffffffff03821115610e9d57610e9c610f58565b5b828201905092915050565b6000610eb382610eba565b9050919050565b600073ffffffffffffffffffffffffffffffffffffffff82169050919050565b6000819050919050565b82818337600083830152505050565b60005b83811015610f11578082015181840152602081019050610ef6565b83811115610f20576000848401525b50505050565b60006002820490506001821680610f3e57607f821691505b60208210811415610f5257610f51610f87565b5b50919050565b7f4e487b7100000000000000000000000000000000000000000000000000000000600052601160045260246000fd5b7f4e487b7100000000000000000000000000000000000000000000000000000000600052602260045260246000fd5b7f4e487b7100000000000000000000000000000000000000000000000000000000600052604160045260246000fd5b6000601f19601f8301169050919050565b610fff81610ea8565b811461100a57600080fd5b5056fea264697066735822122015511d2dfad91cfbe5cbb611764d0bdf65eff53162707dff4d38b2e36c1bd42d64736f6c63430008000033",
  "linkReferences": {},
  "deployedLinkReferences": {}
}